:100000000C942A000C9447000C9447000C94470071
:100010000C9447000C9447000C9447000C94470044
:100020000C9447000C94A0040C9447000C944700D7
:100030000C9447000C9447000C9447000C94470024
:100040000C9447000C9447000C9447000C94470014
:100050000C94470011241FBECFE5D8E0DEBFCDBF12
:1000600010E0A0E6B0E0E4E5FEE002C005900D92ED
:10007000AE3AB107D9F720E0AEEAB0E001C01D9278
:10008000AF3AB207E1F70E9449000C9428070C949C
:1000900000000E941B036EEA77E481EF90E40E9467
:1000A00038032FEF89E698E1215080409040E1F736
:1000B00000C000000E9459040E943E0478940E94EF
:1000C00053010E945D020E9483010E945E01EC01C7
:1000D0008F319105E0F060E080E00E940C0380E643
:1000E00090E00E94D70261E081E00E940C038FE65D
:1000F00090E00E94D702BE0180E090E00E94EA02F8
:1001000085E790E00E94D7020E949801DECF8031FF
:10011000910548F50E9407022FEF89E698E12150EA
:1001200080409040E1F700C000000E94080360E0BA
:1001300080E00E940C0388E790E00E94D70261E013
:1001400081E00E940C038FE690E00E94D702BE017E
:1001500080E090E00E94EA0285E790E00E94D702EA
:100160000E94E901B2CFBC01605171096F30710585
:1001700008F0ABCF0E9407022FEF89E698E12150EB
:1001800080409040E1F700C000000E94080360E05A
:1001900070E080E291E40E9438032FEF89E698E155
:1001A000215080409040E1F700C000000E945E01B5
:1001B0008C0160E070E080EA90E40E9438032FEF49
:1001C00089E698E1215080409040E1F700C00000AE
:1001D0000E945E01EC016EEA77E481EF90E40E94F8
:1001E00038032FEF89E698E1215080409040E1F7F5
:1001F00000C000000C171D0748F50E94080360E0CE
:1002000080E00E940C0385E890E00E94D70261E044
:1002100081E00E940C0383E990E00E94D702BE01B6
:1002200080E090E00E94EA0285E790E00E94D70219
:100230000E94CB010E9407022FEF89E698E121502E
:1002400080409040E1F700C000003FCF0C171D0731
:1002500008F43BCF0E94080360E080E00E940C039A
:1002600089E990E00E94D70261E081E00E940C03DE
:1002700088EA90E00E94D702B80180E090E00E94F6
:10028000EA0285E790E00E94D7020E94AD010E9439
:1002900007022FEF89E698E1215080409040E1F776
:1002A00000C0000012CF41E063E083E00E945C03E5
:1002B00040E066E083E00E945C03089540E063E074
:1002C00083E00E94CD038AE18A95F1F700C041E006
:1002D00063E083E00E94CD0385E38A95F1F7000097
:1002E00040E063E083E00E94CD030E945F040E942F
:1002F000D20526E933E44BE85CE30E9460060E94E5
:10030000A305CB01089541E061E082E00E945C0317
:1003100041E062E082E00E945C0341E063E082E051
:100320000E945C0341E064E082E00E945C03089567
:1003300040E061E082E00E94CD0341E062E082E0C3
:100340000E94CD0340E063E082E00E94CD0341E0E3
:1003500064E082E00E94CD03089540E061E082E025
:100360000E94CD0341E062E082E00E94CD0341E0C3
:1003700063E082E00E94CD0340E064E082E00E94FE
:10038000CD032FE78FE492E1215080409040E1F7C8
:1003900000C00000089541E061E082E00E94CD03CA
:1003A00040E062E082E00E94CD0340E063E082E052
:1003B0000E94CD0341E064E082E00E94CD032FE77C
:1003C0008FE492E1215080409040E1F700C00000AE
:1003D000089540E061E082E00E94CD0341E062E0E8
:1003E00082E00E94CD0341E063E082E00E94CD0301
:1003F00040E064E082E00E94CD032FEF8FE097E2BF
:10040000215080409040E1F700C00000089540E096
:1004100061E082E00E94CD0340E062E082E00E9461
:10042000CD0340E063E082E00E94CD0340E064E061
:1004300082E00E94CD030895CF93C82F40E061E091
:1004400081E00E94CD0340E062E081E00E94CD03A4
:1004500040E064E081E00E94CD038C2F807F8BBB65
:1004600041E064E081E00E94CD038FE99FE00197C5
:10047000F1F700C0000040E064E081E00E94CD039D
:1004800020E1C29FC00111248BBB41E064E081E008
:100490000E94CD038FE99FE00197F1F700C00000B3
:1004A00040E064E081E00E94CD038FE39FE101978B
:1004B000F1F700C00000CF91089541E064E081E0D1
:1004C0000E945C0341E061E081E00E945C0341E046
:1004D00062E081E00E945C0341E064E080E00E9411
:1004E0005C0341E065E080E00E945C0341E066E07F
:1004F00080E00E945C0341E067E080E00E945C03D2
:1005000083E30E941C0282E30E941C0288E20E9494
:100510001C0281E00E941C0282E00E941C0286E014
:100520000E941C028CE00E941C020895CF93C82FE9
:1005300041E061E081E00E94CD0340E062E081E0C3
:100540000E94CD0340E064E081E00E94CD038C2F47
:10055000807F8BBB41E064E081E00E94CD038FE9A6
:100560009FE00197F1F700C0000040E064E081E007
:100570000E94CD0320E1C29FC00111248BBB41E04A
:1005800064E081E00E94CD038FE99FE00197F1F7DD
:1005900000C0000040E064E081E00E94CD038FE3F2
:1005A0009FE10197F1F700C00000CF910895CF932C
:1005B000DF93EC0109C00E9496028FE39FE101974F
:1005C000F1F700C00000219688818111F4CFDF91FE
:1005D000CF910895CF93DF93CDB7DEB72A970FB6AB
:1005E000F894DEBF0FBECDBF2AE030E0AE014F5F12
:1005F0005F4F0E94DC06CE0101960E94D7022A9628
:100600000FB6F894DEBF0FBECDBFDF91CF91089536
:1006100081E00E941C02089520E4829FC001112401
:100620008068860F0E941C0287EC90E00197F1F72A
:1006300000C00000089587B3886087BB83B78860D7
:1006400083BF83B7806483BF83B7806283BF83B770
:100650008F7E83BF83B7846083BF83B78D7F83BF63
:1006600083B78E7F83BF82EE94E097BD86BD0895E9
:10067000CF92DF92EF92FF926B017C0166B577B566
:1006800080E090E00E94D205A70196010E946006DA
:1006900020E030E048EC52E40E94310520E030E0F8
:1006A00040E85FE30E94C4040E94A3056CBFFF9072
:1006B000EF90DF90CF900895442319F04130C9F1B5
:1006C0000895813091F028F08230D9F0833029F1FB
:1006D00008952AB381E090E002C0880F991F6A95BF
:1006E000E2F7809582238ABB089527B381E090E0EA
:1006F00002C0880F991F6A95E2F78095822387BB15
:10070000089524B381E090E002C0880F991F6A9594
:10071000E2F78095822384BB089521B381E090E0C5
:1007200002C0880F991F6A95E2F78095822381BBEA
:100730000895813089F028F08230C9F0833011F1BA
:1007400008952AB381E090E002C0880F991F6A954E
:10075000E2F7822B8ABB089527B381E090E002C0C4
:10076000880F991F6A95E2F7822B87BB089524B3FF
:1007700081E090E002C0880F991F6A95E2F7822B12
:1007800084BB089521B381E090E002C0880F991FD7
:100790006A95E2F7822B81BB0895442319F041301A
:1007A000C9F10895813091F028F08230D9F083307A
:1007B00029F108952BB381E090E002C0880F991FC2
:1007C0006A95E2F7809582238BBB089528B381E078
:1007D00090E002C0880F991F6A95E2F78095822306
:1007E00088BB089525B381E090E002C0880F991F6F
:1007F0006A95E2F78095822385BB089522B381E054
:1008000090E002C0880F991F6A95E2F780958223D5
:1008100082BB0895813089F028F08230C9F083309E
:1008200011F108952BB381E090E002C0880F991F69
:100830006A95E2F7822B8BBB089528B381E090E0A4
:1008400002C0880F991F6A95E2F7822B88BB089532
:1008500025B381E090E002C0880F991F6A95E2F706
:10086000822B85BB089522B381E090E002C0880FFF
:10087000991F6A95E2F7822B82BB089585B5806443
:1008800085BD85B5886085BD85B5806285BD85B52A
:100890008F7E85BD84E683BD85B5887F85BD85B5A2
:1008A000846085BD08958091AE008F5F8093AE0017
:1008B000089589B7846089BF1FBC1EBC08950F933B
:1008C0001F931DBC1CBC81E48EBD88B7806288BFAD
:1008D00088B7846088BF08B605FEFDCF1DBC1CBC70
:1008E00081E08EBD88B7806288BF88B7846088BF8A
:1008F0001092AE0008B605FEFDCF46B557B5209163
:10090000AE0030E0AFEFBFEF0E94CD068B019C013F
:10091000040F151F211D311DD901C80133231CF4FB
:100920000F96A11DB11DBC01CD01689413F89595DA
:100930008795779567951694D1F71F910F91089534
:100940001F920F920FB60F9211242F933F934F9344
:100950005F936F937F938F939F93AF93BF93EF9327
:10096000FF930E945304FF91EF91BF91AF919F912C
:100970008F917F916F915F914F913F912F910F9048
:100980000FBE0F901F9018955058BB27AA270E94A2
:10099000DC040C9426060E94180638F00E941F06FC
:1009A00020F039F49F3F19F426F40C9415060EF448
:1009B000E095E7FB0C940F06E92F0E94370658F3E9
:1009C000BA17620773078407950720F079F4A6F534
:1009D0000C9459060EF4E0950B2EBA2FA02D0B01A6
:1009E000B90190010C01CA01A0011124FF27591B74
:1009F00099F0593F50F4503E68F11A16F040A22F7A
:100A0000232F342F4427585FF3CF469537952795EA
:100A1000A795F0405395C9F77EF41F16BA0B620BE9
:100A2000730B840BBAF09150A1F0FF0FBB1F661F30
:100A3000771F881FC2F70EC0BA0F621F731F841F73
:100A400048F4879577956795B795F7959E3F08F099
:100A5000B0CF9395880F08F09927EE0F979587955B
:100A600008950E9445050C9426060E941F0658F022
:100A70000E94180640F029F45F3F29F00C940F06FD
:100A800051110C945A060C9415060E94370668F30F
:100A90009923B1F3552391F3951B550BBB27AA2737
:100AA00062177307840738F09F5F5F4F220F331F71
:100AB000441FAA1FA9F335D00E2E3AF0E0E832D039
:100AC00091505040E695001CCAF72BD0FE2F29D03C
:100AD000660F771F881FBB1F261737074807AB070E
:100AE000B0E809F0BB0B802DBF01FF2793585F4F83
:100AF0003AF09E3F510578F00C940F060C945A067C
:100B00005F3FE4F3983ED4F3869577956795B79564
:100B1000F7959F5FC9F7880F911D9695879597F96F
:100B20000895E1E0660F771F881FBB1F62177307E8
:100B30008407BA0720F0621B730B840BBA0BEE1FFD
:100B400088F7E09508950E943F0688F09F5798F037
:100B5000B92F9927B751B0F0E1F0660F771F881FC2
:100B6000991F1AF0BA95C9F714C0B13091F00E94DC
:100B70005906B1E008950C945906672F782F8827FD
:100B8000B85F39F0B93FCCF3869577956795B39503
:100B9000D9F73EF490958095709561957F4F8F4F72
:100BA0009F4F0895E89409C097FB3EF49095809577
:100BB000709561957F4F8F4F9F4F9923A9F0F92F23
:100BC00096E9BB279395F695879577956795B795A1
:100BD000F111F8CFFAF4BB0F11F460FF1BC06F5F87
:100BE0007F4F8F4F9F4F16C0882311F096E911C099
:100BF000772321F09EE8872F762F05C0662371F0BA
:100C000096E8862F70E060E02AF09A95660F771FCD
:100C1000881FDAF7880F9695879597F9089597F9C1
:100C20009F6780E870E060E008959FEF80EC089592
:100C300000240A94161617061806090608950024BB
:100C40000A9412161306140605060895092E039435
:100C5000000C11F4882352F0BB0F40F4BF2B11F4A9
:100C600060FF04C06F5F7F4F8F4F9F4F089557FD08
:100C70009058440F551F59F05F3F71F04795880F0A
:100C800097FB991F61F09F3F79F0879508951216A1
:100C900013061406551FF2CF4695F1DF08C016164D
:100CA00017061806991FF1CF8695710561050894FE
:100CB0000895E894BB2766277727CB0197F9089515
:100CC0000E9473060C9426060E94180638F00E94B3
:100CD0001F0620F0952311F00C940F060C941506B6
:100CE00011240C945A060E94370670F3959FC1F3A5
:100CF000950F50E0551F629FF001729FBB27F00DCA
:100D0000B11D639FAA27F00DB11DAA1F649F66271E
:100D1000B00DA11D661F829F2227B00DA11D621F6D
:100D2000739FB00DA11D621F839FA00D611D221F27
:100D3000749F3327A00D611D231F849F600D211D0B
:100D4000822F762F6A2F11249F5750409AF0F1F08E
:100D500088234AF0EE0FFF1FBB1F661F771F881FF7
:100D600091505040A9F79E3F510580F00C940F061A
:100D70000C945A065F3FE4F3983ED4F3869577953A
:100D80006795B795F795E7959F5FC1F7FE2B880F9D
:100D9000911D9695879597F90895A29FB001B39FED
:100DA000C001A39F700D811D1124911DB29F700D74
:100DB000811D1124911D08952532310520F4223022
:100DC00010F00C94E706FA011082CA010895BB27BF
:100DD0002A3051F4992342F4BDE2909580957095A4
:100DE00061957F4F8F4F9F4F0C94F706BB27FA01F9
:100DF000A62F6217710581059105330B30FB66F054
:100E0000AA27660F771F881F991FAA1FA21710F025
:100E1000A21B63953850A9F7A05DAA3308F0A95D1D
:100E2000A19336F7B111B1931082CA010C9418073F
:100E3000DC01FC01672F71917723E1F7329704C041
:100E40007C916D9370836291AE17BF07C8F30895CC
:040E5000F894FFCF44
:100E540063617220676F20666F7277617264004607
:100E640044203D2000636D00636172207475726ECE
:100E74002031383000636172207475726E206C65A5
:100E84006674004C44203D200063617220747572C6
:0E0E94006E207269676874005244203D200091
:00000001FF
